{
  "address": "0xCf7Ed3AccA5a467e9e704C703E8D87F634fB0Fc9",
  "abi": [
    {
      "inputs": [
        {
          "internalType": "address",
          "name": "vrfCoordinatorV2",
          "type": "address"
        },
        {
          "internalType": "uint256",
          "name": "entranceFee",
          "type": "uint256"
        },
        {
          "internalType": "bytes32",
          "name": "gasLane",
          "type": "bytes32"
        },
        {
          "internalType": "uint64",
          "name": "subscriptionId",
          "type": "uint64"
        },
        {
          "internalType": "uint32",
          "name": "callbackGasLimit",
          "type": "uint32"
        },
        {
          "internalType": "uint256",
          "name": "interval",
          "type": "uint256"
        }
      ],
      "stateMutability": "nonpayable",
      "type": "constructor"
    },
    {
      "inputs": [
        {
          "internalType": "address",
          "name": "have",
          "type": "address"
        },
        {
          "internalType": "address",
          "name": "want",
          "type": "address"
        }
      ],
      "name": "OnlyCoordinatorCanFulfill",
      "type": "error"
    },
    {
      "inputs": [],
      "name": "Raffle__NotEnoughEntranceETH",
      "type": "error"
    },
    {
      "inputs": [],
      "name": "Raffle__NotOpen",
      "type": "error"
    },
    {
      "inputs": [],
      "name": "Raffle__TransferFailed",
      "type": "error"
    },
    {
      "inputs": [
        {
          "internalType": "uint256",
          "name": "balance",
          "type": "uint256"
        },
        {
          "internalType": "uint256",
          "name": "numPlayers",
          "type": "uint256"
        },
        {
          "internalType": "uint256",
          "name": "raffleState",
          "type": "uint256"
        }
      ],
      "name": "Raffle__UpkeepNotNeeded",
      "type": "error"
    },
    {
      "anonymous": false,
      "inputs": [
        {
          "indexed": true,
          "internalType": "address",
          "name": "player",
          "type": "address"
        }
      ],
      "name": "RaffleEnter",
      "type": "event"
    },
    {
      "anonymous": false,
      "inputs": [
        {
          "indexed": true,
          "internalType": "uint256",
          "name": "requestId",
          "type": "uint256"
        }
      ],
      "name": "RequestRaffleWinner",
      "type": "event"
    },
    {
      "anonymous": false,
      "inputs": [
        {
          "indexed": true,
          "internalType": "address",
          "name": "winner",
          "type": "address"
        }
      ],
      "name": "WinnerSelected",
      "type": "event"
    },
    {
      "inputs": [
        {
          "internalType": "bytes",
          "name": "",
          "type": "bytes"
        }
      ],
      "name": "checkUpkeep",
      "outputs": [
        {
          "internalType": "bool",
          "name": "upKeepNeeded",
          "type": "bool"
        },
        {
          "internalType": "bytes",
          "name": "",
          "type": "bytes"
        }
      ],
      "stateMutability": "view",
      "type": "function"
    },
    {
      "inputs": [],
      "name": "enterRaffle",
      "outputs": [],
      "stateMutability": "payable",
      "type": "function"
    },
    {
      "inputs": [],
      "name": "getEntranceFees",
      "outputs": [
        {
          "internalType": "uint256",
          "name": "",
          "type": "uint256"
        }
      ],
      "stateMutability": "view",
      "type": "function"
    },
    {
      "inputs": [],
      "name": "getInterval",
      "outputs": [
        {
          "internalType": "uint256",
          "name": "",
          "type": "uint256"
        }
      ],
      "stateMutability": "view",
      "type": "function"
    },
    {
      "inputs": [],
      "name": "getLastTimeStamp",
      "outputs": [
        {
          "internalType": "uint256",
          "name": "",
          "type": "uint256"
        }
      ],
      "stateMutability": "view",
      "type": "function"
    },
    {
      "inputs": [],
      "name": "getNumWords",
      "outputs": [
        {
          "internalType": "uint256",
          "name": "",
          "type": "uint256"
        }
      ],
      "stateMutability": "pure",
      "type": "function"
    },
    {
      "inputs": [],
      "name": "getNumberOfPlayers",
      "outputs": [
        {
          "internalType": "uint256",
          "name": "",
          "type": "uint256"
        }
      ],
      "stateMutability": "view",
      "type": "function"
    },
    {
      "inputs": [
        {
          "internalType": "uint256",
          "name": "index",
          "type": "uint256"
        }
      ],
      "name": "getPlayer",
      "outputs": [
        {
          "internalType": "address",
          "name": "",
          "type": "address"
        }
      ],
      "stateMutability": "view",
      "type": "function"
    },
    {
      "inputs": [],
      "name": "getRaffleState",
      "outputs": [
        {
          "internalType": "enum Raffle.RaffleState",
          "name": "",
          "type": "uint8"
        }
      ],
      "stateMutability": "view",
      "type": "function"
    },
    {
      "inputs": [],
      "name": "getWinner",
      "outputs": [
        {
          "internalType": "address",
          "name": "",
          "type": "address"
        }
      ],
      "stateMutability": "view",
      "type": "function"
    },
    {
      "inputs": [
        {
          "internalType": "bytes",
          "name": "",
          "type": "bytes"
        }
      ],
      "name": "performUpkeep",
      "outputs": [],
      "stateMutability": "nonpayable",
      "type": "function"
    },
    {
      "inputs": [
        {
          "internalType": "uint256",
          "name": "requestId",
          "type": "uint256"
        },
        {
          "internalType": "uint256[]",
          "name": "randomWords",
          "type": "uint256[]"
        }
      ],
      "name": "rawFulfillRandomWords",
      "outputs": [],
      "stateMutability": "nonpayable",
      "type": "function"
    }
  ],
  "transactionHash": "0xd9106f9afc5f7311b6fc4e785ffcc80bed0c5d24abea52a9ebd16eafcd30aaa5",
  "args": [
    "0x5FbDB2315678afecb367f032d93F642f64180aa3",
    "10000000000000000",
    "0x79d3d8832d904592c0bf9818b621522c988bb8b0c05cdc3b15aea1b6e8db0c15",
    "1",
    "500000",
    "30"
  ],
  "numDeployments": 1,
  "solcInputHash": "14f813f1bb8d12aefaff60621b705103",
  "bytecode": "0x6101606040523480156200001257600080fd5b506040516200184138038062001841833981810160405281019062000038919062000294565b858073ffffffffffffffffffffffffffffffffffffffff1660808173ffffffffffffffffffffffffffffffffffffffff1681525050508573ffffffffffffffffffffffffffffffffffffffff1660c08173ffffffffffffffffffffffffffffffffffffffff16815250508460a081815250508360e081815250508267ffffffffffffffff166101008167ffffffffffffffff16815250508163ffffffff166101208163ffffffff1681525050806101408181525050426002819055506000600360006101000a81548160ff021916908360018111156200011d576200011c62000330565b5b02179055505050505050506200035f565b600080fd5b600073ffffffffffffffffffffffffffffffffffffffff82169050919050565b6000620001608262000133565b9050919050565b620001728162000153565b81146200017e57600080fd5b50565b600081519050620001928162000167565b92915050565b6000819050919050565b620001ad8162000198565b8114620001b957600080fd5b50565b600081519050620001cd81620001a2565b92915050565b6000819050919050565b620001e881620001d3565b8114620001f457600080fd5b50565b6000815190506200020881620001dd565b92915050565b600067ffffffffffffffff82169050919050565b6200022d816200020e565b81146200023957600080fd5b50565b6000815190506200024d8162000222565b92915050565b600063ffffffff82169050919050565b6200026e8162000253565b81146200027a57600080fd5b50565b6000815190506200028e8162000263565b92915050565b60008060008060008060c08789031215620002b457620002b36200012e565b5b6000620002c489828a0162000181565b9650506020620002d789828a01620001bc565b9550506040620002ea89828a01620001f7565b9450506060620002fd89828a016200023c565b93505060806200031089828a016200027d565b92505060a06200032389828a01620001bc565b9150509295509295509295565b7f4e487b7100000000000000000000000000000000000000000000000000000000600052602160045260246000fd5b60805160a05160c05160e051610100516101205161014051611472620003cf6000396000818161076f01526108420152600061062e0152600061060b015260006105ea015260006105ae01526000818161038901526106fa0152600081816102c9015261031d01526114726000f3fe6080604052600436106100a75760003560e01c80636e04ff0d116100645780636e04ff0d146101895780638e7ea5b2146101c757806391ad27b4146101f2578063c1c244e81461021d578063e55ae4e814610248578063fd6673f514610285576100a7565b8063115cbaf5146100ac5780631fe543e3146100d75780632cfcc539146101005780634585e33b1461010a5780634a26d4f41461013357806353a2c19a1461015e575b600080fd5b3480156100b857600080fd5b506100c16102b0565b6040516100ce9190610c51565b60405180910390f35b3480156100e357600080fd5b506100fe60048036038101906100f99190610e0f565b6102c7565b005b610108610387565b005b34801561011657600080fd5b50610131600480360381019061012c9190610ec6565b6104f6565b005b34801561013f57600080fd5b506101486106f6565b6040516101559190610f22565b60405180910390f35b34801561016a57600080fd5b5061017361071e565b6040516101809190610f22565b60405180910390f35b34801561019557600080fd5b506101b060048036038101906101ab9190610ff2565b61072d565b6040516101be9291906110de565b60405180910390f35b3480156101d357600080fd5b506101dc610814565b6040516101e9919061114f565b60405180910390f35b3480156101fe57600080fd5b5061020761083e565b6040516102149190610f22565b60405180910390f35b34801561022957600080fd5b50610232610866565b60405161023f9190610f22565b60405180910390f35b34801561025457600080fd5b5061026f600480360381019061026a919061116a565b610870565b60405161027c919061114f565b60405180910390f35b34801561029157600080fd5b5061029a6108b7565b6040516102a79190610f22565b60405180910390f35b6000600360009054906101000a900460ff16905090565b7f000000000000000000000000000000000000000000000000000000000000000073ffffffffffffffffffffffffffffffffffffffff163373ffffffffffffffffffffffffffffffffffffffff161461037957337f00000000000000000000000000000000000000000000000000000000000000006040517f1cf993f4000000000000000000000000000000000000000000000000000000008152600401610370929190611197565b60405180910390fd5b61038382826108c3565b5050565b7f00000000000000000000000000000000000000000000000000000000000000003410156103e1576040517fb923620000000000000000000000000000000000000000000000000000000000815260040160405180910390fd5b600060018111156103f5576103f4610bda565b5b600360009054906101000a900460ff16600181111561041757610416610bda565b5b1461044e576040517f1425571c00000000000000000000000000000000000000000000000000000000815260040160405180910390fd5b6000339080600181540180825580915050600190039060005260206000200160009091909190916101000a81548173ffffffffffffffffffffffffffffffffffffffff021916908373ffffffffffffffffffffffffffffffffffffffff1602179055503373ffffffffffffffffffffffffffffffffffffffff167f0805e1d667bddb8a95f0f09880cf94f403fb596ce79928d9f29b74203ba284d460405160405180910390a2565b60006105106040518060200160405280600081525061072d565b5090508061057f5747600080549050600360009054906101000a900460ff16600181111561054157610540610bda565b5b6040517f584327aa000000000000000000000000000000000000000000000000000000008152600401610576939291906111c0565b60405180910390fd5b6001600360006101000a81548160ff021916908360018111156105a5576105a4610bda565b5b021790555060007f000000000000000000000000000000000000000000000000000000000000000073ffffffffffffffffffffffffffffffffffffffff16635d3b1d307f00000000000000000000000000000000000000000000000000000000000000007f000000000000000000000000000000000000000000000000000000000000000060037f000000000000000000000000000000000000000000000000000000000000000060016040518663ffffffff1660e01b815260040161066f95949392919061126f565b602060405180830381600087803b15801561068957600080fd5b505af115801561069d573d6000803e3d6000fd5b505050506040513d601f19601f820116820180604052508101906106c191906112d7565b9050807fde6349b018d6c03d837b67d9a198a6ba4842546f2295fe963fae141e5dbaef8160405160405180910390a250505050565b60007f0000000000000000000000000000000000000000000000000000000000000000905090565b6000600163ffffffff16905090565b60006060600080600181111561074657610745610bda565b5b600360009054906101000a900460ff16600181111561076857610767610bda565b5b14905060007f00000000000000000000000000000000000000000000000000000000000000006002544261079c9190611333565b119050600080600080549050119050600080471190508380156107bc5750825b80156107c55750815b80156107ce5750805b9550856040518060400160405280600381526020017f30783000000000000000000000000000000000000000000000000000000000008152509550955050505050915091565b6000600160009054906101000a900473ffffffffffffffffffffffffffffffffffffffff16905090565b60007f0000000000000000000000000000000000000000000000000000000000000000905090565b6000600254905090565b600080828154811061088557610884611367565b5b9060005260206000200160009054906101000a900473ffffffffffffffffffffffffffffffffffffffff169050919050565b60008080549050905090565b60008080549050826000815181106108de576108dd611367565b5b60200260200101516108f091906113c5565b90506000818154811061090657610905611367565b5b9060005260206000200160009054906101000a900473ffffffffffffffffffffffffffffffffffffffff16600160006101000a81548173ffffffffffffffffffffffffffffffffffffffff021916908373ffffffffffffffffffffffffffffffffffffffff1602179055506000600360006101000a81548160ff0219169083600181111561099757610996610bda565b5b0217905550600067ffffffffffffffff8111156109b7576109b6610ccc565b5b6040519080825280602002602001820160405280156109e55781602001602082028036833780820191505090505b50600090805190602001906109fb929190610b33565b50426002819055506000600160009054906101000a900473ffffffffffffffffffffffffffffffffffffffff1673ffffffffffffffffffffffffffffffffffffffff1647604051610a4b90611427565b60006040518083038185875af1925050503d8060008114610a88576040519150601f19603f3d011682016040523d82523d6000602084013e610a8d565b606091505b5050905080610ac8576040517fa1d04b3900000000000000000000000000000000000000000000000000000000815260040160405180910390fd5b600160009054906101000a900473ffffffffffffffffffffffffffffffffffffffff1673ffffffffffffffffffffffffffffffffffffffff167f1d4c260f1824cd028e6c9e6e31c3a0b94f2513e7a641113ec759d382f9bdd5a160405160405180910390a250505050565b828054828255906000526020600020908101928215610bac579160200282015b82811115610bab5782518260006101000a81548173ffffffffffffffffffffffffffffffffffffffff021916908373ffffffffffffffffffffffffffffffffffffffff16021790555091602001919060010190610b53565b5b509050610bb99190610bbd565b5090565b5b80821115610bd6576000816000905550600101610bbe565b5090565b7f4e487b7100000000000000000000000000000000000000000000000000000000600052602160045260246000fd5b60028110610c1a57610c19610bda565b5b50565b6000819050610c2b82610c09565b919050565b6000610c3b82610c1d565b9050919050565b610c4b81610c30565b82525050565b6000602082019050610c666000830184610c42565b92915050565b6000604051905090565b600080fd5b600080fd5b6000819050919050565b610c9381610c80565b8114610c9e57600080fd5b50565b600081359050610cb081610c8a565b92915050565b600080fd5b6000601f19601f8301169050919050565b7f4e487b7100000000000000000000000000000000000000000000000000000000600052604160045260246000fd5b610d0482610cbb565b810181811067ffffffffffffffff82111715610d2357610d22610ccc565b5b80604052505050565b6000610d36610c6c565b9050610d428282610cfb565b919050565b600067ffffffffffffffff821115610d6257610d61610ccc565b5b602082029050602081019050919050565b600080fd5b6000610d8b610d8684610d47565b610d2c565b90508083825260208201905060208402830185811115610dae57610dad610d73565b5b835b81811015610dd75780610dc38882610ca1565b845260208401935050602081019050610db0565b5050509392505050565b600082601f830112610df657610df5610cb6565b5b8135610e06848260208601610d78565b91505092915050565b60008060408385031215610e2657610e25610c76565b5b6000610e3485828601610ca1565b925050602083013567ffffffffffffffff811115610e5557610e54610c7b565b5b610e6185828601610de1565b9150509250929050565b600080fd5b60008083601f840112610e8657610e85610cb6565b5b8235905067ffffffffffffffff811115610ea357610ea2610e6b565b5b602083019150836001820283011115610ebf57610ebe610d73565b5b9250929050565b60008060208385031215610edd57610edc610c76565b5b600083013567ffffffffffffffff811115610efb57610efa610c7b565b5b610f0785828601610e70565b92509250509250929050565b610f1c81610c80565b82525050565b6000602082019050610f376000830184610f13565b92915050565b600080fd5b600067ffffffffffffffff821115610f5d57610f5c610ccc565b5b610f6682610cbb565b9050602081019050919050565b82818337600083830152505050565b6000610f95610f9084610f42565b610d2c565b905082815260208101848484011115610fb157610fb0610f3d565b5b610fbc848285610f73565b509392505050565b600082601f830112610fd957610fd8610cb6565b5b8135610fe9848260208601610f82565b91505092915050565b60006020828403121561100857611007610c76565b5b600082013567ffffffffffffffff81111561102657611025610c7b565b5b61103284828501610fc4565b91505092915050565b60008115159050919050565b6110508161103b565b82525050565b600081519050919050565b600082825260208201905092915050565b60005b83811015611090578082015181840152602081019050611075565b8381111561109f576000848401525b50505050565b60006110b082611056565b6110ba8185611061565b93506110ca818560208601611072565b6110d381610cbb565b840191505092915050565b60006040820190506110f36000830185611047565b818103602083015261110581846110a5565b90509392505050565b600073ffffffffffffffffffffffffffffffffffffffff82169050919050565b60006111398261110e565b9050919050565b6111498161112e565b82525050565b60006020820190506111646000830184611140565b92915050565b6000602082840312156111805761117f610c76565b5b600061118e84828501610ca1565b91505092915050565b60006040820190506111ac6000830185611140565b6111b96020830184611140565b9392505050565b60006060820190506111d56000830186610f13565b6111e26020830185610f13565b6111ef6040830184610f13565b949350505050565b6000819050919050565b61120a816111f7565b82525050565b600067ffffffffffffffff82169050919050565b61122d81611210565b82525050565b600061ffff82169050919050565b61124a81611233565b82525050565b600063ffffffff82169050919050565b61126981611250565b82525050565b600060a0820190506112846000830188611201565b6112916020830187611224565b61129e6040830186611241565b6112ab6060830185611260565b6112b86080830184611260565b9695505050505050565b6000815190506112d181610c8a565b92915050565b6000602082840312156112ed576112ec610c76565b5b60006112fb848285016112c2565b91505092915050565b7f4e487b7100000000000000000000000000000000000000000000000000000000600052601160045260246000fd5b600061133e82610c80565b915061134983610c80565b92508282101561135c5761135b611304565b5b828203905092915050565b7f4e487b7100000000000000000000000000000000000000000000000000000000600052603260045260246000fd5b7f4e487b7100000000000000000000000000000000000000000000000000000000600052601260045260246000fd5b60006113d082610c80565b91506113db83610c80565b9250826113eb576113ea611396565b5b828206905092915050565b600081905092915050565b50565b60006114116000836113f6565b915061141c82611401565b600082019050919050565b600061143282611404565b915081905091905056fea26469706673582212204f720a3b823c511720e7e0b5616a5e59ca6d29b30ebe52ae2ff92566ad4b22e164736f6c63430008090033",
  "devdoc": {
    "kind": "dev",
    "methods": {},
    "version": 1
  },
  "userdoc": {
    "kind": "user",
    "methods": {},
    "version": 1
  },
  "storageLayout": {
    "storage": [
      {
        "astId": 196,
        "contract": "contracts/Raffle.sol:Raffle",
        "label": "s_players",
        "offset": 0,
        "slot": "0",
        "type": "t_array(t_address_payable)dyn_storage"
      },
      {
        "astId": 198,
        "contract": "contracts/Raffle.sol:Raffle",
        "label": "s_winner",
        "offset": 0,
        "slot": "1",
        "type": "t_address_payable"
      },
      {
        "astId": 215,
        "contract": "contracts/Raffle.sol:Raffle",
        "label": "s_lastTimeStamp",
        "offset": 0,
        "slot": "2",
        "type": "t_uint256"
      },
      {
        "astId": 220,
        "contract": "contracts/Raffle.sol:Raffle",
        "label": "s_RaffleState",
        "offset": 0,
        "slot": "3",
        "type": "t_enum(RaffleState)191"
      }
    ],
    "types": {
      "t_address_payable": {
        "encoding": "inplace",
        "label": "address payable",
        "numberOfBytes": "20"
      },
      "t_array(t_address_payable)dyn_storage": {
        "base": "t_address_payable",
        "encoding": "dynamic_array",
        "label": "address payable[]",
        "numberOfBytes": "32"
      },
      "t_enum(RaffleState)191": {
        "encoding": "inplace",
        "label": "enum Raffle.RaffleState",
        "numberOfBytes": "1"
      },
      "t_uint256": {
        "encoding": "inplace",
        "label": "uint256",
        "numberOfBytes": "32"
      }
    }
  }
}